{
  "contractName": "Election",
  "abi": [
    {
      "constant": true,
      "inputs": [
        {
          "name": "",
          "type": "uint256"
        }
      ],
      "name": "candidates",
      "outputs": [
        {
          "name": "candidate_id",
          "type": "uint256"
        },
        {
          "name": "candidate_name",
          "type": "string"
        },
        {
          "name": "candidate_no_of_votes",
          "type": "uint256"
        }
      ],
      "payable": false,
      "stateMutability": "view",
      "type": "function"
    },
    {
      "constant": true,
      "inputs": [
        {
          "name": "",
          "type": "address"
        }
      ],
      "name": "voters",
      "outputs": [
        {
          "name": "",
          "type": "bool"
        }
      ],
      "payable": false,
      "stateMutability": "view",
      "type": "function"
    },
    {
      "constant": true,
      "inputs": [],
      "name": "no_of_candidates",
      "outputs": [
        {
          "name": "",
          "type": "uint256"
        }
      ],
      "payable": false,
      "stateMutability": "view",
      "type": "function"
    },
    {
      "inputs": [],
      "payable": false,
      "stateMutability": "nonpayable",
      "type": "constructor"
    },
    {
      "constant": false,
      "inputs": [
        {
          "name": "_name",
          "type": "string"
        }
      ],
      "name": "addCandidate",
      "outputs": [],
      "payable": false,
      "stateMutability": "nonpayable",
      "type": "function"
    },
    {
      "constant": false,
      "inputs": [
        {
          "name": "_candidateId",
          "type": "uint256"
        }
      ],
      "name": "vote",
      "outputs": [],
      "payable": false,
      "stateMutability": "nonpayable",
      "type": "function"
    }
  ],
  "bytecode": "0x6080604052600060035534801561001557600080fd5b506100636040805190810160405280600b81526020017f43616e6469646174652031000000000000000000000000000000000000000000815250610102640100000000026401000000009004565b6100b06040805190810160405280600b81526020017f43616e6469646174652032000000000000000000000000000000000000000000815250610102640100000000026401000000009004565b6100fd6040805190810160405280600b81526020017f43616e6469646174652033000000000000000000000000000000000000000000815250610102640100000000026401000000009004565b610224565b6003600081548092919060010191905055506060604051908101604052806003548152602001828152602001600081525060026000600354815260200190815260200160002060008201518160000155602082015181600101908051906020019061016e92919061017f565b506040820151816002015590505050565b828054600181600116156101000203166002900490600052602060002090601f016020900481019282601f106101c057805160ff19168380011785556101ee565b828001600101855582156101ee579182015b828111156101ed5782518255916020019190600101906101d2565b5b5090506101fb91906101ff565b5090565b61022191905b8082111561021d576000816000905550600101610205565b5090565b90565b61056e806102336000396000f30060806040526004361061006d576000357c0100000000000000000000000000000000000000000000000000000000900463ffffffff1680630121b93f146100725780633477ee2e1461009f578063462e91ec14610153578063a3ec138d146101bc578063aa1ea3af14610217575b600080fd5b34801561007e57600080fd5b5061009d60048036038101908080359060200190929190505050610242565b005b3480156100ab57600080fd5b506100ca60048036038101908080359060200190929190505050610338565b6040518084815260200180602001838152602001828103825284818151815260200191508051906020019080838360005b838110156101165780820151818401526020810190506100fb565b50505050905090810190601f1680156101435780820380516001836020036101000a031916815260200191505b5094505050505060405180910390f35b34801561015f57600080fd5b506101ba600480360381019080803590602001908201803590602001908080601f01602080910402602001604051908101604052809392919081815260200183838082843782019150505050505091929192905050506103fa565b005b3480156101c857600080fd5b506101fd600480360381019080803573ffffffffffffffffffffffffffffffffffffffff169060200190929190505050610477565b604051808215151515815260200191505060405180910390f35b34801561022357600080fd5b5061022c610497565b6040518082815260200191505060405180910390f35b600160003373ffffffffffffffffffffffffffffffffffffffff1673ffffffffffffffffffffffffffffffffffffffff16815260200190815260200160002060009054906101000a900460ff1615151561029b57600080fd5b6000811180156102ad57506003548111155b15156102b857600080fd5b60018060003373ffffffffffffffffffffffffffffffffffffffff1673ffffffffffffffffffffffffffffffffffffffff16815260200190815260200160002060006101000a81548160ff021916908315150217905550600260008281526020019081526020016000206002016000815480929190600101919050555050565b6002602052806000526040600020600091509050806000015490806001018054600181600116156101000203166002900480601f0160208091040260200160405190810160405280929190818152602001828054600181600116156101000203166002900480156103ea5780601f106103bf576101008083540402835291602001916103ea565b820191906000526020600020905b8154815290600101906020018083116103cd57829003601f168201915b5050505050908060020154905083565b6003600081548092919060010191905055506060604051908101604052806003548152602001828152602001600081525060026000600354815260200190815260200160002060008201518160000155602082015181600101908051906020019061046692919061049d565b506040820151816002015590505050565b60016020528060005260406000206000915054906101000a900460ff1681565b60035481565b828054600181600116156101000203166002900490600052602060002090601f016020900481019282601f106104de57805160ff191683800117855561050c565b8280016001018555821561050c579182015b8281111561050b5782518255916020019190600101906104f0565b5b509050610519919061051d565b5090565b61053f91905b8082111561053b576000816000905550600101610523565b5090565b905600a165627a7a72305820a8ee8f64178f082e7aee6b865209cb0033ba0b882cb455dd358bcf32e4d744b80029",
  "source": "pragma solidity >= 0.4.11;\n\ncontract Election {\n    \n    address deployed;\n    // Schema of Candidate class\n    struct Candidate {\n        uint candidate_id;\n        string candidate_name;\n        uint candidate_no_of_votes;\n    }\n\n    mapping(address => bool) public voters;         //map to keep track of voters who already voted\n    mapping(uint => Candidate) public candidates;  //to access candidates using index\n    uint public no_of_candidates = 0;\n\n    constructor() public {\n        addCandidate(\"Candidate 1\");\n        addCandidate(\"Candidate 2\");\n        addCandidate(\"Candidate 3\");\n    }\n\n    function addCandidate (string memory _name) public {\n        no_of_candidates ++;\n        candidates[no_of_candidates] = Candidate(no_of_candidates, _name, 0);\n    }\n\n    function vote (uint _candidateId) public {\n        \n        require(!voters[msg.sender]);\n\n        \n        require(_candidateId > 0 && _candidateId <= no_of_candidates);\n\n       \n        voters[msg.sender] = true;\n\n\n        candidates[_candidateId].candidate_no_of_votes ++;\n    }\n}\n",
  "sourcePath": "C:\\Users\\nives\\python projects\\final bct\\dapp_vote-dapp\\dapp_vote-dapp\\contracts\\Election.sol",
  "compiler": {
    "name": "solc",
    "version": "0.4.25+commit.59dbf8f1.Emscripten.clang"
  },
  "schemaVersion": "3.4.3",
  "updatedAt": "2021-11-28T18:28:02.224Z",
  "networkType": "ethereum",
  "devdoc": {
    "methods": {}
  },
  "userdoc": {
    "methods": {}
  }
}